:100000000C9462000C948A000C948A000C948A0070
:100010000C948A000C948A000C948A000C948A0038
:100020000C948A000C948A000C948A000C948A0028
:100030000C948A000C948A000C948A000C948A0018
:100040000C9487010C948A000C9406030C945403BE
:100050000C948A000C948A000C948A000C948A00F8
:100060000C948A000C948A000000000024002700F1
:100070002A0000000000250028002B0000000000DE
:1000800023002600290004040404040404040202DA
:100090000202020203030303030301020408102007
:1000A0004080010204081020010204081020000012
:1000B0000007000201000003040600000000000029
:1000C0000000C00411241FBECFEFD8E0DEBFCDBFBB
:1000D00011E0A0E0B1E0EAE5F2E102C005900D9286
:1000E000AE32B107D9F711E0AEE2B1E001C01D9226
:1000F000A63EB107E1F710E0C4ECD0E004C02297BF
:10010000FE010E942709C23CD107C9F70E9478016D
:100110000C948C000C940000F8940C942B09FB01B7
:10012000DC0102C001900D9241505040D8F7089573
:10013000FB01DC018D91019080190110D9F3990B1D
:100140000895FB01DC0101900D920020E1F7089574
:10015000BF92CF92DF92EF92FF920F931F93C82E20
:10016000B62E569547957A0100E010E0DD2411C0C7
:100170008C2D61E00E94B102C801B7010E940A0201
:100180008C2D60E00E94B102C801B7010E940A02F2
:10019000D394DB1468F31F910F91FF90EF90DF90E1
:1001A000CF90BF900895EF92FF920F931F93DF932C
:1001B000CF93CDB7DEB72E970FB6F894DEBF0FBE44
:1001C000CDBF82EC91E00E9416041816190664F166
:1001D00020E030E080912F0190913001892B11F4C3
:1001E00021E030E03093300120932F01232B51F098
:1001F00080912E0161E00E94B10282EC91E060E00A
:1002000071E009C080912E0160E00E94B10282EC91
:1002100091E066E071E00E947C0568EE73E080E0AA
:1002200090E00E940A0242C080912E0164E048ECF6
:1002300050E00E94A8008E010F5F1F4FC8016AE0C6
:1002400071E00E94C906F02EE12E09C082EC91E017
:100250000E944704682F8F2D9E2D0E946D0682EC10
:1002600091E00E941604892B89F78F2D9E2D6AE05C
:1002700071E00E94E7058823A9F48E01085F1F4FF3
:10028000C8016BE071E00E94E306C8016F2D7E2D6E
:100290000E949206BC0182EC91E00E94C205C80156
:1002A0000E940307CE0101960E94FD062E960FB60E
:1002B000F894DEBF0FBECDBFCF91DF911F910F919C
:1002C000FF90EF9008958DE080932E0182EC91E0F5
:1002D00040E855E260E070E00E948F0380912E01BB
:1002E00061E00E9472021092300110922F01089575
:1002F000CF93DF930E94CF010E946301C1E4D3E05A
:100300000E94D3002097E1F30E944103F9CF1F928E
:100310000F920FB60F9211242F933F938F939F93B9
:10032000AF93BF938091350190913601A091370131
:10033000B0913801309139010196A11DB11D232FD3
:100340002D5F2D3720F02D570196A11DB11D209353
:1003500039018093350190933601A0933701B09312
:1003600038018091310190913201A0913301B09117
:1003700034010196A11DB11D80933101909332018A
:10038000A0933301B0933401BF91AF919F918F91AE
:100390003F912F910F900FBE0F901F90189578945A
:1003A00084B5826084BD84B5816084BD85B582607A
:1003B00085BD85B5816085BDEEE6F0E08081816018
:1003C0008083E1E8F0E01082808182608083808118
:1003D00081608083E0E8F0E0808181608083E1EBF0
:1003E000F0E0808184608083E0EBF0E080818160D8
:1003F0008083EAE7F0E0808184608083808182608E
:100400008083808181608083808180688083109276
:10041000C1000895EF92FF920F931F93CF93DF9344
:100420007B018C013FB7F8948091310190913201AA
:10043000A0913301B091340126B5A89B05C02F3F90
:1004400019F00196A11DB11D3FBFBA2FA92F982FFA
:100450008827820F911DA11DB11D52E0880F991FA1
:10046000AA1FBB1F5A95D1F7EC0130C00E940907A3
:100470003FB7F8948091310190913201A0913301FE
:10048000B091340126B5A89B05C02F3F19F0019605
:10049000A11DB11D3FBFBA2FA92F982F8827820F0A
:1004A000911DA11DB11D32E0880F991FAA1FBB1F0E
:1004B0003A95D1F78C1B9D0B885E9340B8F2089457
:1004C000E108F10801091109C851DC4FE114F104F8
:1004D0000105110559F6DF91CF911F910F91FF9002
:1004E000EF900895CF93DF93482F50E0CA018656CE
:1004F0009F4FFC0134914A575F4FFA018491882342
:1005000069F190E0880F991FFC01E859FF4FA59110
:10051000B491FC01EE58FF4FC591D491662351F47C
:100520002FB7F8948C91932F909589238C93888181
:1005300089230BC0623061F42FB7F8948C91932F0C
:10054000909589238C938881832B88832FBF06C045
:100550009FB7F8948C91832B8C939FBFDF91CF91A1
:100560000895482F50E0CA0182559F4FFC01249105
:10057000CA0186569F4FFC0194914A575F4FFA017A
:100580003491332309F440C0222351F1233071F018
:10059000243028F42130A1F0223011F514C0263087
:1005A000B1F02730C1F02430D9F404C0809180002C
:1005B0008F7703C0809180008F7D8093800010C072
:1005C00084B58F7702C084B58F7D84BD09C08091CA
:1005D000B0008F7703C08091B0008F7D8093B00012
:1005E000E32FF0E0EE0FFF1FEE58FF4FA591B491FF
:1005F0002FB7F894662321F48C919095892302C03B
:100600008C91892B8C932FBF089508951F920F9280
:100610000FB60F9211242F933F934F938F939F9375
:10062000EF93FF938091C00082FD1DC04091C600F2
:1006300020917A0130917B012F5F3F4F2F733070F3
:1006400080917C0190917D012817390771F0E0912C
:100650007A01F0917B01E65CFE4F408330937B0191
:1006600020937A0102C08091C600FF91EF919F9183
:100670008F914F913F912F910F900FBE0F901F9030
:100680001895E091CE01F091CF01E05CFF4F819190
:10069000919120813181821B930B8F739070892BF4
:1006A00011F00E94050308951F920F920FB60F924A
:1006B00011242F933F938F939F93EF93FF93209158
:1006C000BE013091BF018091C0019091C1012817F6
:1006D000390731F48091C1008F7D8093C10014C02F
:1006E000E091C001F091C101E258FE4F208180915C
:1006F000C0019091C10101968F7390709093C101D8
:100700008093C0012093C600FF91EF919F918F913C
:100710003F912F910F900FBE0F901F901895AF92A1
:10072000BF92DF92EF92FF920F931F93CF93DF93CD
:10073000EC017A018B01DD24403081EE580780E026
:10074000680780E0780711F0DD24D39491E0A92EAA
:10075000B12CEC89FD89DD2069F0C50108A002C03B
:10076000880F991F0A94E2F7808360E079E08DE3B7
:1007700090E005C0108260E874E88EE190E0A80186
:1007800097010E9403092150304040405040569547
:1007900047953795279580E12030380720F0DD20F8
:1007A00011F0DD24D6CFE889F9893083EA89FB8905
:1007B000208319A2EE89FF89408121E030E0C90140
:1007C0000C8C02C0880F991F0A94E2F7482B4083D3
:1007D000EE89FF894081C9010D8C02C0880F991FE5
:1007E0000A94E2F7482B4083EE89FF894081C901D2
:1007F0000E8C02C0880F991F0A94E2F7482B4083A1
:10080000EE89FF8980810F8C02C0220F331F0A946A
:10081000E2F7209528232083DF91CF911F910F913C
:10082000FF90EF90DF90BF90AF900895DC011C9691
:10083000ED91FC911D97E05CFF4F219131918081FA
:100840009181281B390B2F733070C9010895DC0189
:100850001C96ED91FC911D97E05CFF4F208131814A
:10086000E054F040DF01AE5BBF4F8D919C9111973A
:100870002817390719F42FEF3FEF07C08D919C918E
:10088000E80FF91F8081282F30E0C9010895DC01AD
:100890001C96ED91FC911D97E05CFF4F208131810A
:1008A000E054F040DF01AE5BBF4F8D919C911197FA
:1008B0002817390719F42FEF3FEF10C08D919C9145
:1008C0001197E80FF91F20818D919C911197019646
:1008D0008F73907011969C938E9330E0C9010895A8
:1008E000DC0191968C919197882339F05496ED9183
:1008F000FC915597808186FFF9CF91961C920895BF
:10090000CF93DF93EC01EE85FF85E05CFF4F208104
:100910003181E054F0402F5F3F4F2F733070DF0183
:10092000AE5BBF4F8D919C91119728173907D1F37A
:10093000E05CFF4F80819181E054F040E80FF91FA7
:100940006083EE85FF85E05CFF4F31832083EE8975
:10095000FF89208181E090E00F8C02C0880F991FF1
:100960000A94E2F7282B208381E089A3EC89FD8992
:1009700080818064808381E090E0DF91CF91089551
:100980001092C5011092C40188EE93E0A0E0B0E09F
:100990008093C6019093C701A093C801B093C90189
:1009A00082E291E09093C3018093C2018AE391E0D7
:1009B0009093CF018093CE018EE791E09093D10187
:1009C0008093D00185EC90E09093D3018093D20185
:1009D00084EC90E09093D5018093D40180EC90E07A
:1009E0009093D7018093D60181EC90E09093D90148
:1009F0008093D80182EC90E09093DB018093DA0140
:100A000086EC90E09093DD018093DC0184E080939C
:100A1000DE0183E08093DF0187E08093E00185E0E1
:100A20008093E10181E08093E2010895CF92DF920B
:100A3000EF92FF920F931F93CF93DF937C016B0193
:100A40008A01C0E0D0E00FC0D6016D916D01D701E1
:100A5000ED91FC910190F081E02DC7010995C80F3F
:100A6000D91F015010400115110571F7CE01DF911A
:100A7000CF911F910F91FF90EF90DF90CF9008954D
:100A8000EF92FF920F931F938C01DC01ED91FC918B
:100A90000190F081E02D6DE009957C01D801ED9188
:100AA000FC910190F081E02DC8016AE009959C015C
:100AB0002E0D3F1DC9011F910F91FF90EF900895DA
:100AC000CF93DF93EC016115710519F420E030E05C
:100AD0000FC0DB010D900020E9F71197A61BB70BA3
:100AE000E881F9810280F381E02DAD0109959C0137
:100AF000C901DF91CF910895EF92FF920F931F9359
:100B00007C010E9460058C01C7010E944005080F0E
:100B1000191FC8011F910F91FF90EF900895AF9298
:100B2000BF92CF92DF92EF92FF920F931F93CF93DA
:100B3000DF935C016B01EE24FF24C0E0D0E010C025
:100B4000D501ED91FC9100811181C601BE010E9489
:100B5000D605682FC501F8010995E80EF91E219602
:100B6000F60184819581C817D90750F3C701DF9139
:100B7000CF911F910F91FF90EF90DF90CF90BF909A
:100B8000AF900895EF92FF920F931F937C010E9404
:100B90008F058C01C7010E9440059C01200F311F69
:100BA000C9011F910F91FF90EF900895FC0184817E
:100BB00095816817790748F40190F081E02D30970E
:100BC00021F0E60FF71F8081089580E00895DC0191
:100BD000FB0114968D919C911597892B31F4611529
:100BE0007105A9F090E0808108C00D90BC91A02D06
:100BF0006115710529F490E08C91882349F407C0B0
:100C0000CD010E9498009C0190E0232B09F491E013
:100C1000892F08950F931F93CF93DF93EC018B01DE
:100C20006F5F7F4F888199810E942908009711F496
:100C300080E005C0998388831B830A8381E0DF916C
:100C4000CF911F910F910895CF93DF93EC0188818D
:100C50009981892B29F08A819B818617970760F4F7
:100C6000CE010E940A06882341F08C819D81892B48
:100C700019F4E881F981108281E0DF91CF91089524
:100C8000EF92FF920F931F93CF93DF93EC017B01C1
:100C90006C817D81E114F104C1F04115510599F099
:100CA0008A01060F171FB8010E942406882369F0E5
:100CB000888199812C813D81820F931FB7010E9409
:100CC000A1001D830C8381E001C080E0DF91CF9102
:100CD0001F910F91FF90EF900895DF93CF9300D075
:100CE000CDB7DEB769831A82BE016F5F7F4F41E0E7
:100CF00050E00E9440060F900F90CF91DF91089531
:100D0000CF93DF93EC0188819981009711F00E94C5
:100D10009107198218821D821C821B821A82DF9120
:100D2000CF9108950F931F93182F092FFB01608116
:100D30007181448155810E944006882321F4812FCE
:100D4000902F0E948006812F902F1F910F91089560
:100D5000EF92FF920F931F93CF93DF93EC017B01F0
:100D60008A01BA010E942406882321F4CE010E9440
:100D7000800607C01D830C8388819981B7010E947A
:100D8000A100CE01DF91CF911F910F91FF90EF90C5
:100D90000895CF93DF93EC01198218821B821A8287
:100DA0001D821C821E826115710551F0DB010D90C0
:100DB0000020E9F71197A61BB70BAD010E94A8060A
:100DC000DF91CF910895CF93DF93EC0119821882C0
:100DD0001B821A821D821C821E826115710551F0D0
:100DE000DB010D900020E9F71197A61BB70BAD01B1
:100DF0000E94A806DF91CF910895FC018081918126
:100E00000E9491070895FC01808191810E949107C1
:100E1000089508950F931F93CF93DF93BC01823001
:100E2000910510F462E070E0E091E401F091E501D9
:100E3000A0E0B0E040E050E024C0808191818617BE
:100E40009707D0F08617970771F4828193811097E6
:100E500029F013969C938E9312972CC09093E501E2
:100E60008093E40127C04115510519F084179507B7
:100E700018F4EF018D01AC01DF01828193819C01A7
:100E8000F9013097D1F641155105F9F0CA01861BD9
:100E9000970B8430910580F48A819B81011511059F
:100EA00021F0F8019383828304C09093E50180933D
:100EB000E401FE0132962FC0FE01E80FF91F619395
:100EC000719302979983888326C08DB79EB7885700
:100ED000904020911A0130911B0128173907C8F45E
:100EE000AC01421B530B4617570798F0CB010296F3
:100EF0004817590770F0820F931F90931B0180933E
:100F00001A0190931D0180931C01F9016193719363
:100F100002C0E0E0F0E0CF01DF91CF911F910F918F
:100F20000895CF93DF939C01009709F48FC0EC01E3
:100F300022971B821A826091E4017091E50161158C
:100F4000710581F488819981820F931F20911A0184
:100F500030911B012817390739F5D0931B01C09335
:100F60001A0174C0DB0140E050E0AC17BD0708F186
:100F7000BB83AA83FE0121913191E20FF31FAE17CB
:100F8000BF0779F48D919C911197280F391F2E5F1F
:100F90003F4F3983288312968D919C9113979B83A1
:100FA0008A834115510571F4D093E501C093E401A2
:100FB0004DC012968D919C911397AD01009711F041
:100FC000DC01D3CFDA011396DC93CE931297FA01AA
:100FD00021913191E20FF31FCE17DF0769F4888169
:100FE0009981280F391F2E5F3F4FFA0131832083EB
:100FF0008A819B8193838283E0E0F0E0DB0112969B
:101000008D919C911397009719F0BC01FD01F6CFCB
:10101000AB014E5F5F4FDB018D919C91840F951F5B
:1010200020911A0130911B012817390779F4309764
:1010300029F41092E5011092E40102C01382128299
:101040004250504050931B0140931A01DF91CF91C1
:1010500008956F927F928F929F92AF92BF92CF929C
:10106000DF92EF92FF920F931F93CF93DF938C0148
:10107000009729F4CB010E940A078C01B4C08EEFBF
:10108000E82E8FEFF82EE00EF11E5801A60EB71EC7
:10109000AE14BF0408F4A5C0D7014D915C9111971F
:1010A00046175707B8F04530510508F49CC0CA01EF
:1010B00004978617970708F496C042505040461B85
:1010C000570BF501419351936D937C93CF010E948F
:1010D000910789C04B01841A950A3801640E751E68
:1010E000A091E401B091E501CC24DD24E0E0F0E042
:1010F00047C0A615B705A9F5CD91DC911197CE0192
:1011000002968815990568F1CE0188199909029609
:1011100012962C91129713963C91059758F0F50171
:1011200022833383C819D909D183C083D7016D9332
:101130007C9309C04E5F5F4F4C0F5D1FF7015183D9
:101140004083C901FC01C114D10431F0D6011396CA
:10115000FC93EE93129747C0F093E501E093E4010E
:1011600042C08D919C911197E817F90708F4FC0192
:101170006D0112968C91129713969C919C01D90146
:10118000109709F0B6CF80911A0190911B01861536
:101190009705B1F4E617F70798F48DB79EB788570F
:1011A0009040A816B906E8F4B0921B01A0921A016B
:1011B000B0921D01A0921C01F7017183608313C0DE
:1011C000CB010E940A07EC01009759F0D7014D911D
:1011D0005C91B8010E948F00C8010E9491078E01A6
:1011E00002C000E010E0C801DF91CF911F910F9184
:1011F000FF90EF90DF90CF90BF90AF909F908F9037
:101200007F906F900895A1E21A2EAA1BBB1BFD01CF
:101210000DC0AA1FBB1FEE1FFF1FA217B307E407D5
:10122000F50720F0A21BB30BE40BF50B661F771F2D
:10123000881F991F1A9469F760957095809590950D
:101240009B01AC01BD01CF010895EE0FFF1F05907A
:0A125000F491E02D0994F894FFCF0B
:10125A004849474831004C4F5700004152445549CC
:10126A004E4F20524543563A2000E60164000000E2
:0E127A000000800416051604470427047004C3
:00000001FF
