:100000000C9462000C948A000C948A000C948A0070
:100010000C948A000C948A000C948A000C948A0038
:100020000C948A000C948A000C948A000C948A0028
:100030000C948A000C948A000C948A000C948A0018
:100040000C9471010C948A000C94F0020C943E0301
:100050000C948A000C948A000C948A000C948A00F8
:100060000C948A000C948A000000000024002700F1
:100070002A0000000000250028002B0000000000DE
:1000800023002600290004040404040404040202DA
:100090000202020203030303030301020408102007
:1000A0004080010204081020010204081020000012
:1000B0000007000201000003040600000000000029
:1000C0000000230411241FBECFEFD8E0DEBFCDBF58
:1000D00011E0A0E0B1E0EEE7F0E102C005900D9282
:1000E000A432B107D9F711E0A4E2B1E001C01D923A
:1000F000AC3DB107E1F710E0C4ECD0E004C02297BA
:10010000FE010E943908C23CD107C9F70E94620172
:100110000C948C000C940000F8940C943D08FB01A6
:10012000DC0102C001900D9241505040D8F7089573
:10013000FB01DC018D91019080190110D9F3990B1D
:100140000895FB01DC0101900D920020E1F7089574
:10015000BF92CF92DF92EF92FF920F931F93C82E20
:10016000B62E569547957A0100E010E0DD2411C0C7
:100170008C2D61E00E949B02C801B7010E94F4012E
:100180008C2D60E00E949B02C801B7010E94F4011F
:10019000D394DB1468F31F910F91FF90EF90DF90E1
:1001A000CF90BF900895EF92FF920F931F93DF932C
:1001B000CF93CDB7DEB72E970FB6F894DEBF0FBE44
:1001C000CDBF88EB91E00E9479031816190604F15F
:1001D00020E030E08091250190912601892B11F4D7
:1001E00021E030E03093260120932501232B21F0DC
:1001F0008091240161E003C08091240160E00E94AD
:100200009B0268EE73E080E090E00E94F40142C03F
:100210008091240164E048EC50E00E94A8008E0127
:100220000F5F1F4FC80160E071E00E94FD05F02ED6
:10023000E12E09C088EB91E00E94AA03682F8F2D60
:100240009E2D0E94A10588EB91E00E947903892BE5
:1002500089F78F2D9E2D60E071E00E941B05882399
:10026000A9F48E01085F1F4FC80161E071E00E9490
:100270001706C8016F2D7E2D0E94C605BC0188EBB4
:1002800091E00E94F604C8010E943706CE01019653
:100290000E9431062E960FB6F894DEBF0FBECDBF7A
:1002A000CF91DF911F910F91FF90EF9008958DE016
:1002B0008093240161E00E945C021092260110925A
:1002C00025010895CF93DF930E94B9010E94570141
:1002D000CBE2D3E00E94D3002097E1F30E942B03EE
:1002E000F9CF1F920F920FB60F9211242F933F93C5
:1002F0008F939F93AF93BF9380912B0190912C018B
:10030000A0912D01B0912E0130912F010196A11DD8
:10031000B11D232F2D5F2D3720F02D570196A11DE4
:10032000B11D20932F0180932B0190932C01A0935A
:100330002D01B0932E018091270190912801A09169
:100340002901B0912A010196A11DB11D80932701B9
:1003500090932801A0932901B0932A01BF91AF91F6
:100360009F918F913F912F910F900FBE0F901F90F3
:100370001895789484B5826084BD84B5816084BD0D
:1003800085B5826085BD85B5816085BDEEE6F0E00E
:10039000808181608083E1E8F0E01082808182606A
:1003A0008083808181608083E0E8F0E080818160EB
:1003B0008083E1EBF0E0808184608083E0EBF0E01B
:1003C000808181608083EAE7F0E0808184608083BF
:1003D0008081826080838081816080838081806869
:1003E00080831092C1000895EF92FF920F931F93A4
:1003F000CF93DF937B018C013FB7F8948091270165
:1004000090912801A0912901B0912A0126B5A89BBD
:1004100005C02F3F19F00196A11DB11D3FBFBA2F96
:10042000A92F982F8827820F911DA11DB11D52E081
:10043000880F991FAA1FBB1F5A95D1F7EC0130C036
:100440000E943D063FB7F8948091270190912801C2
:10045000A0912901B0912A0126B5A89B05C02F3F84
:1004600019F00196A11DB11D3FBFBA2FA92F982FDA
:100470008827820F911DA11DB11D32E0880F991FA1
:10048000AA1FBB1F3A95D1F78C1B9D0B885E93402A
:10049000B8F20894E108F10801091109C851DC4FCC
:1004A000E114F1040105110559F6DF91CF911F9177
:1004B0000F91FF90EF900895CF93DF93482F50E076
:1004C000CA0186569F4FFC0134914A575F4FFA018B
:1004D0008491882369F190E0880F991FFC01E85905
:1004E000FF4FA591B491FC01EE58FF4FC591D491F7
:1004F000662351F42FB7F8948C91932F909589230C
:100500008C93888189230BC0623061F42FB7F894F3
:100510008C91932F909589238C938881832B88834A
:100520002FBF06C09FB7F8948C91832B8C939FBFED
:10053000DF91CF910895482F50E0CA0182559F4F17
:10054000FC012491CA0186569F4FFC0194914A57A1
:100550005F4FFA013491332309F440C0222351F153
:10056000233071F0243028F42130A1F0223011F52D
:1005700014C02630B1F02730C1F02430D9F404C0C3
:10058000809180008F7703C0809180008F7D809361
:10059000800010C084B58F7702C084B58F7D84BD84
:1005A00009C08091B0008F7703C08091B0008F7D2B
:1005B0008093B000E32FF0E0EE0FFF1FEE58FF4FE7
:1005C000A591B4912FB7F894662321F48C9190955E
:1005D000892302C08C91892B8C932FBF0895089595
:1005E0001F920F920FB60F9211242F933F934F93A8
:1005F0008F939F93EF93FF938091C00082FD1DC066
:100600004091C60020917001309171012F5F3F4FE2
:100610002F73307080917201909173012817390700
:1006200071F0E0917001F0917101E05DFE4F408347
:10063000309371012093700102C08091C600FF9138
:10064000EF919F918F914F913F912F910F900FBEFE
:100650000F901F901895E091C401F091C501E05CE6
:10066000FF4F8191919120813181821B930B8F7378
:100670009070892B11F00E94EF0208951F920F9243
:100680000FB60F9211242F933F938F939F93EF9365
:10069000FF932091B4013091B5018091B601909102
:1006A000B7012817390731F48091C1008F7D8093FD
:1006B000C10014C0E091B601F091B701EC58FE4FB3
:1006C00020818091B6019091B70101968F7390704F
:1006D0009093B7018093B6012093C600FF91EF91EC
:1006E0009F918F913F912F910F900FBE0F901F9070
:1006F0001895DC011C96ED91FC911D97E05CFF4F75
:100700002191319180819181281B390B2F73307099
:10071000C9010895DC011C96ED91FC911D97E05CE8
:10072000FF4F20813181E054F040DF01AE5BBF4FCD
:100730008D919C9111972817390719F42FEF3FEFEE
:1007400007C08D919C91E80FF91F8081282F30E020
:10075000C9010895DC011C96ED91FC911D97E05CA8
:10076000FF4F20813181E054F040DF01AE5BBF4F8D
:100770008D919C9111972817390719F42FEF3FEFAE
:1007800010C08D919C911197E80FF91F20818D91D8
:100790009C91119701968F73907011969C938E93F4
:1007A00030E0C9010895DC0191968C9191978823DE
:1007B00039F05496ED91FC915597808186FFF9CFE1
:1007C00091961C920895CF93DF93EC01EE85FF85FF
:1007D000E05CFF4F20813181E054F0402F5F3F4FBC
:1007E0002F733070DF01AE5BBF4F8D919C911197DD
:1007F00028173907D1F3E05CFF4F80819181E054E5
:10080000F040E80FF91F6083EE85FF85E05CFF4F45
:1008100031832083EE89FF89208181E090E00F8C75
:1008200002C0880F991F0A94E2F7282B208381E0E9
:1008300089A3EC89FD8980818064808381E090E0D8
:10084000DF91CF9108951092BB011092BA0188EE0A
:1008500093E0A0E0B0E08093BC019093BD01A09331
:10086000BE01B093BF0188E191E09093B9018093FC
:10087000B80180E391E09093C5018093C40184E7BF
:1008800091E09093C7018093C60185EC90E090932E
:10089000C9018093C80184EC90E09093CB018093D0
:1008A000CA0180EC90E09093CD018093CC0181EC63
:1008B00090E09093CF018093CE0182EC90E09093F2
:1008C000D1018093D00186EC90E09093D301809386
:1008D000D20184E08093D40183E08093D50187E046
:1008E0008093D60185E08093D70181E08093D80181
:1008F0000895CF92DF92EF92FF920F931F93CF93C1
:10090000DF937C016B018A01C0E0D0E00FC0D6010B
:100910006D916D01D701ED91FC910190F081E02D79
:10092000C7010995C80FD91F0150104001151105C5
:1009300071F7CE01DF91CF911F910F91FF90EF9052
:10094000DF90CF900895EF92FF920F931F938C0149
:10095000DC01ED91FC910190F081E02D6DE00995B5
:100960007C01D801ED91FC910190F081E02DC8014E
:100970006AE009959C012E0D3F1DC9011F910F9141
:10098000FF90EF900895AF92BF92CF92DF92EF92D7
:10099000FF920F931F93CF93DF935C016B01EE24C3
:1009A000FF24C0E0D0E010C0D501ED91FC910081A2
:1009B0001181C601BE010E940A05682FC501F80118
:1009C0000995E80EF91E2196F60184819581C817D4
:1009D000D90750F3C701DF91CF911F910F91FF907D
:1009E000EF90DF90CF90BF90AF900895EF92FF927D
:1009F0000F931F937C010E94C3048C01C7010E94C6
:100A0000A3049C01200F311FC9011F910F91FF907A
:100A1000EF900895FC01848195816817790748F467
:100A20000190F081E02D309721F0E60FF71F8081D3
:100A3000089580E00895DC01FB0114968D919C914E
:100A40001597892B31F461157105A9F090E080812B
:100A500008C00D90BC91A02D6115710529F490E09E
:100A60008C91882349F407C0CD010E9498009C0115
:100A700090E0232B09F491E0892F08950F931F93A1
:100A8000CF93DF93EC018B016F5F7F4F888199815A
:100A90000E945D07009711F480E005C09983888368
:100AA0001B830A8381E0DF91CF911F910F910895FD
:100AB000CF93DF93EC0188819981892B29F08A817A
:100AC0009B818617970760F4CE010E943E0588231C
:100AD00041F08C819D81892B19F4E881F981108284
:100AE00081E0DF91CF910895EF92FF920F931F93D2
:100AF000CF93DF93EC017B016C817D81E114F104E4
:100B0000C1F04115510599F08A01060F171FB80170
:100B10000E945805882369F0888199812C813D8144
:100B2000820F931FB7010E94A1001D830C8381E0F7
:100B300001C080E0DF91CF911F910F91FF90EF9066
:100B40000895DF93CF9300D0CDB7DEB769831A82C3
:100B5000BE016F5F7F4F41E050E00E9474050F902F
:100B60000F90CF91DF910895CF93DF93EC018881AF
:100B70009981009711F00E94C506198218821D8282
:100B80001C821B821A82DF91CF9108950F931F93CD
:100B9000182F092FFB0160817181448155810E94CA
:100BA0007405882321F4812F902F0E94B405812F92
:100BB000902F1F910F910895EF92FF920F931F9323
:100BC000CF93DF93EC017B018A01BA010E945805A3
:100BD000882321F4CE010E94B40507C01D830C8335
:100BE00088819981B7010E94A100CE01DF91CF9148
:100BF0001F910F91FF90EF900895CF93DF93EC0139
:100C0000198218821B821A821D821C821E82611523
:100C1000710551F0DB010D900020E9F71197A61B3B
:100C2000B70BAD010E94DC05DF91CF910895CF9302
:100C3000DF93EC01198218821B821A821D821C82AA
:100C40001E826115710551F0DB010D900020E9F75E
:100C50001197A61BB70BAD010E94DC05DF91CF9168
:100C60000895FC01808191810E94C5060895FC01D0
:100C7000808191810E94C506089508950F931F9366
:100C8000CF93DF93BC018230910510F462E070E0F5
:100C9000E091DA01F091DB01A0E0B0E040E050E04B
:100CA00024C08081918186179707D0F08617970717
:100CB00071F482819381109729F013969C938E93FF
:100CC00012972CC09093DB018093DA0127C0411565
:100CD000510519F08417950718F4EF018D01AC0147
:100CE000DF01828193819C01F9013097D1F6411592
:100CF0005105F9F0CA01861B970B8430910580F4E9
:100D00008A819B810115110521F0F801938382836B
:100D100004C09093DB018093DA01FE0132962FC06C
:100D2000FE01E80FF91F61937193029799838883FD
:100D300026C08DB79EB78857904020911001309102
:100D4000110128173907C8F4AC01421B530B461791
:100D5000570798F0CB0102964817590770F0820F99
:100D6000931F90931101809310019093130180932E
:100D70001201F9016193719302C0E0E0F0E0CF014C
:100D8000DF91CF911F910F910895CF93DF939C0135
:100D9000009709F48FC0EC0122971B821A826091A0
:100DA000DA017091DB016115710581F48881998107
:100DB000820F931F209110013091110128173907DC
:100DC00039F5D0931101C093100174C0DB0140E0EC
:100DD00050E0AC17BD0708F1BB83AA83FE01219147
:100DE0003191E20FF31FAE17BF0779F48D919C91FB
:100DF0001197280F391F2E5F3F4F39832883129692
:100E00008D919C9113979B838A834115510571F4B1
:100E1000D093DB01C093DA014DC012968D919C9165
:100E20001397AD01009711F0DC01D3CFDA011396CF
:100E3000DC93CE931297FA0121913191E20FF31FC7
:100E4000CE17DF0769F488819981280F391F2E5F3B
:100E50003F4FFA01318320838A819B819383828370
:100E6000E0E0F0E0DB0112968D919C9113970097E2
:100E700019F0BC01FD01F6CFAB014E5F5F4FDB0106
:100E80008D919C91840F951F20911001309111013B
:100E90002817390779F4309729F41092DB01109262
:100EA000DA0102C013821282425050405093110165
:100EB00040931001DF91CF9108956F927F928F92AE
:100EC0009F92AF92BF92CF92DF92EF92FF920F93D9
:100ED0001F93CF93DF938C01009729F4CB010E94DD
:100EE0003E068C01B4C08EEFE82E8FEFF82EE00E98
:100EF000F11E5801A60EB71EAE14BF0408F4A5C01B
:100F0000D7014D915C91119746175707B8F04530BE
:100F1000510508F49CC0CA0104978617970708F486
:100F200096C042505040461B570BF50141935193D8
:100F30006D937C93CF010E94C50689C04B01841A32
:100F4000950A3801640E751EA091DA01B091DB019B
:100F5000CC24DD24E0E0F0E047C0A615B705A9F5F4
:100F6000CD91DC911197CE0102968815990568F113
:100F7000CE0188199909029612962C911297139610
:100F80003C91059758F0F50122833383C819D9099C
:100F9000D183C083D7016D937C9309C04E5F5F4FAF
:100FA0004C0F5D1FF70151834083C901FC01C1143F
:100FB000D10431F0D6011396FC93EE93129747C0FB
:100FC000F093DB01E093DA0142C08D919C9111977F
:100FD000E817F90708F4FC016D0112968C9112973D
:100FE00013969C919C01D901109709F0B6CF80917E
:100FF00010019091110186159705B1F4E617F707D6
:1010000098F48DB79EB788579040A816B906E8F4B3
:10101000B0921101A0921001B0921301A09212019E
:10102000F7017183608313C0CB010E943E06EC017F
:10103000009759F0D7014D915C91B8010E948F0043
:10104000C8010E94C5068E0102C000E010E0C80180
:10105000DF91CF911F910F91FF90EF90DF90CF9094
:10106000BF90AF909F908F907F906F900895EE0FFC
:0E107000FF1F0590F491E02D0994F894FFCF36
:10107E000041524455494E4F20524543563A2000A6
:10108E00DC01640000000000E30379047903AA0385
:04109E008A03D303EB
:00000001FF
